:020000040800F2
:10000000583F0120DD310008D14B0008D94B0008D2
:10001000E14B0008E94B0008F14B0008000000002C
:100020000000000000000000000000006D5D0008FE
:10003000F94B000800000000055F00085D5F000844
:1000400049320008493200084932000849320008A4
:100050004932000849320008493200084932000894
:100060004932000849320008493200084932000884
:100070004932000849320008493200084932000874
:100080004932000849320008493200084932000864
:100090004932000849320008493200084932000854
:1000A0004932000849320008493200084932000844
:1000B0004932000849320008493200084932000834
:1000C0004932000849320008493200084932000824
:1000D0004932000849320008493200084932000814
:1000E0004932000849320008493200084932000804
:1000F00049320008493200084932000849320008F4
:1001000049320008094C0008493200084932000809
:1001100049320008493200084932000849320008D3
:1001200049320008493200084932000849320008C3
:1001300049320008493200084932000849320008B3
:1001400049320008493200084932000849320008A3
:100150004932000849320008493200084932000893
:100160004932000849320008493200084932000883
:100170004932000849320008493200084932000873
:1001800049320008014C000810B5054C237833B9FA
:10019000044B13B10448AFF300800123237010BD5A
:1001A000780800200000000040AB000808B5064BAE
:1001B0001BB106480649AFF300800648036813B137
:1001C000054B03B1984708BD0000000040AB000894
:1001D0007C080020700800200000000080B483B07C
:1001E00000AF78607B680C4A1A607B684FF07E52E3
:1001F0005A607B684FF000029A607B684FF0000203
:10020000DA607B684FF000021A617B6818460C3791
:10021000BD465DF8047B7047CDCCCC3D80B5B0B019
:1002200000AFF86287ED0A0AC7ED090A87ED081AE0
:10023000C7ED071A87ED062AC7ED052A87ED043AB0
:10024000C7ED033A87ED024AC7ED014AD7ED037ABD
:10025000F5EE407AF1EE10FA20D1D7ED027AF5EE04
:10026000407AF1EE10FA19D1D7ED017AF5EE407A25
:10027000F1EE10FA12D1F86A97ED0A0AD7ED090AE1
:1002800097ED081AD7ED071A97ED062AD7ED052A3C
:1002900097ED043A00F0C2FE00F0BCBEFB6AD3ED5D
:1002A000027AB1EE677AD7ED097A27EE277AFB6AF0
:1002B000D3ED036AD7ED087A66EEA77A37EE677A50
:1002C000FB6AD3ED046AD7ED077A66EEA77A37EEBC
:1002D000677AF6EE007A67EE277AC7ED2F7AFB6A27
:1002E00093ED017AD7ED097A27EE277AFB6AD3EDF1
:1002F000036AD7ED077A66EEA77A37EE277AFB6AAC
:10030000D3ED046AD7ED087A66EEA77A37EE677AFE
:10031000F6EE007A67EE277AC7ED2E7AFB6A93ED48
:10032000017AD7ED087A27EE277AFB6AD3ED026AC5
:10033000D7ED077A66EEA77A37EE677AFB6AD3EDD8
:10034000046AD7ED097A66EEA77A37EE277AF6EED9
:10035000007A67EE277AC7ED2D7AFB6A93ED017A72
:10036000D7ED077A27EE277AFB6AD3ED026AD7ED3D
:10037000087A66EEA77A37EE277AFB6AD3ED036A2E
:10038000D7ED097A66EEA77A37EE677AF6EE007A4D
:1003900067EE277AC7ED2C7AD7ED067AF5EE407A2C
:1003A000F1EE10FA0ED1D7ED057AF5EE407AF1EEC6
:1003B00010FA07D1D7ED047AF5EE407AF1EE10FA93
:1003C00000F09C8597ED067AD7ED067A27EE277A1E
:1003D000D7ED056AD7ED057A66EEA77A37EE277A6C
:1003E000D7ED046AD7ED047A66EEA77A77EE277A1E
:1003F000B0EE670A01F030F987ED2B0A97ED067A27
:10040000D7ED2B7A67EE277AC7ED067A97ED057A56
:10041000D7ED2B7A67EE277AC7ED057A97ED047A48
:10042000D7ED2B7A67EE277AC7ED047A97ED037A3A
:10043000D7ED037A27EE277AD7ED026AD7ED027A55
:1004400066EEA77A37EE277AD7ED016AD7ED017A03
:1004500066EEA77A77EE277AB0EE670A01F0FCF82D
:1004600087ED2B0A97ED037AD7ED2B7A67EE277A83
:10047000C7ED037A97ED027AD7ED2B7A67EE277AEC
:10048000C7ED027A97ED017AD7ED2B7A67EE277ADE
:10049000C7ED017AFB6AD3ED017A37EEA77AD7ED83
:1004A000037A67EE277AC7ED2A7AFB6AD3ED017AE1
:1004B00037EEA77AD7ED027A67EE277AC7ED297A69
:1004C000FB6AD3ED017A37EEA77AD7ED017A67EEB2
:1004D000277AC7ED287AFB6AD3ED027A37EEA77A3E
:1004E000D7ED037A67EE277AC7ED277AFB6AD3ED5B
:1004F000017A77EEA77AC7ED267AFB6AD3ED027A06
:1005000077EEA77AC7ED257AFB6AD3ED037A77EE0B
:10051000A77AC7ED247AFB6AD3ED047A77EEA77A3F
:10052000C7ED237AFB6AD3ED017A37EEA77AFB6A2F
:10053000D3ED037A67EE277AC7ED227AFB6AD3ED13
:10054000037A37EEA77AFB6AD3ED047A67EE277A4F
:10055000C7ED217AFB6A93ED017AFB6AD3ED017A4C
:1005600067EE277AC7ED207AFB6A93ED017AFB6A82
:10057000D3ED027A67EE277AC7ED1F7AFB6A93ED17
:10058000017AFB6AD3ED037A67EE277AC7ED1E7A0C
:10059000FB6A93ED017AFB6AD3ED047A67EE277A62
:1005A000C7ED1D7AFB6A93ED027AFB6AD3ED027AFE
:1005B00067EE277AC7ED1C7AFB6A93ED027AFB6A35
:1005C000D3ED037A67EE277AC7ED1B7AFB6A93EDCA
:1005D000027AFB6AD3ED047A67EE277AC7ED1A7ABE
:1005E000FB6A93ED037AFB6AD3ED037A67EE277A11
:1005F000C7ED197AFB6A93ED037AFB6AD3ED047AAF
:1006000067EE277AC7ED187AFB6A93ED047AFB6AE6
:10061000D3ED047A67EE277AC7ED177A97ED037A60
:10062000D7ED207A27EE277AFB6AD3ED046AD7ED5F
:10063000297A66EEA77A37EE677AFB6AD3ED036A0A
:10064000D7ED287A66EEA77A37EE277AD7ED036AD8
:10065000D7ED1C7A66EEA77A37EE277AD7ED256AB2
:10066000D7ED027A66EEA76AFB6AD3ED037A66EEEF
:10067000A77A37EE277AD7ED256AD7ED017A66EEAD
:10068000A76AFB6AD3ED047A66EEA77A37EE277A7B
:10069000D7ED036AD7ED197A66EEA77A37EE677A57
:1006A000D7ED036AD7ED177A66EEA77A77EE677A09
:1006B000C7ED167AFB6A93ED047AD7ED2A7A27EE16
:1006C000277AD7ED026AD7ED207A66EEA77A37EE61
:1006D000277AFB6AD3ED026AD7ED287A66EEA77A0D
:1006E00037EE677AFB6AD3ED036AD7ED277A66EEB9
:1006F000A77A37EE277AD7ED026AD7ED1C7A66EE35
:10070000A77A37EE677AD7ED026AD7ED197A66EEE7
:10071000A77A37EE277AD7ED246AD7ED017A66EE0D
:10072000A76AFB6AD3ED047A66EEA77A37EE277ADA
:10073000D7ED026AD7ED177A66EEA77A77EE677A79
:10074000C7ED157A97ED167AD7ED167A27EE277A48
:10075000D7ED156AD7ED157A66EEA77A77EE277A88
:10076000B0EE670A08F006FF87ED140AD7ED2A7A83
:10077000B1EE677AFB6AD3ED037A27EE277AFB6A3C
:10078000D3ED026AD7ED297A66EEA77A37EE277A9B
:10079000D7ED016AD7ED207A66EEA77A37EE277A91
:1007A000FB6AD3ED046AD7ED277A66EEA77A37EEB7
:1007B000277AD7ED016AD7ED1C7A66EEA77A37EE75
:1007C000677AD7ED246AD7ED027A66EEA76AFB6AEC
:1007D000D3ED047A66EEA77A37EE277AD7ED016A71
:1007E000D7ED197A66EEA77A37EE677AD7ED016A08
:1007F000D7ED177A66EEA77A77EE277AC7ED137AE8
:10080000D7ED147A77EEA77AC7ED127AD7ED137A7F
:1008100077EEA77AC7ED117AD7ED247AB1EE677A31
:10082000D7ED1A7A77EEA76AD7ED227A76EEE76AE5
:10083000D7ED067A76EEE77A27EE277AD7ED1F7A9C
:1008400077EEA76AD7ED217A76EEA76AD7ED057A1B
:1008500076EEE76AD7ED257A66EEA77A37EE277A45
:10086000FB6AD3ED036AD7ED137A66EEA76AB6EE9C
:10087000006AD7ED197A36EE676AD7ED177A36EE49
:10088000676AD7ED147A26EE276AD7ED1A5AD7EDA4
:100890001E7A75EEE75AD7ED137A65EEA77A36EE33
:1008A000276AD7ED037A76EE677A66EEA77A37EE97
:1008B000677AD7ED147AF1EE676AFB6AD3ED047AB2
:1008C00066EEA76AFB6A93ED026AD7ED137A66EECD
:1008D000277A76EEA76A97ED1B6AD7ED1D7A36EE7A
:1008E000676AD7ED147A26EE276AD7ED1F5AD7ED3F
:1008F000187A75EEA75AD7ED137A65EEA77A36EE19
:10090000276AD7ED027A76EE677A66EEA77A37EE37
:10091000277AFB6AD3ED036AD7ED147A66EEA76AED
:1009200097ED1E6AD7ED1A7A36EE276AD7ED147A5C
:1009300026EE276AF6EE005AD7ED1C7A75EEE75AD6
:10094000D7ED197A75EEE75AD7ED137A65EEA77AE7
:1009500036EE276AD7ED017A76EE677A66EEA77AE9
:1009600077EE277AC7ED107AD7ED1A7A37EEA77AA5
:10097000D7ED227A37EE677AD7ED067A37EE677AC7
:10098000D7ED237A27EE277AD7ED1F7A77EEA76A7D
:10099000D7ED217A76EEA76AD7ED057A76EEE76A8B
:1009A000D7ED267A66EEA77A37EE277AFB6AD3ED83
:1009B000026AF1EE007A66EEA76AD7ED1C7A77EE4E
:1009C000A77AB7EE006A36EE676AD7ED197A77EE46
:1009D000A77A36EE676AD7ED047A76EE677A66EE26
:1009E000A77A37EE677AFB6AD3ED046AD7ED137AFC
:1009F00066EEA76AB6EE006AD7ED197A36EE676A38
:100A0000D7ED177A36EE676AD7ED147A26EE276AA5
:100A1000D7ED1A5AD7ED1E7A75EEE75AD7ED137A4D
:100A200065EEA77A36EE276AD7ED037A76EE677A17
:100A300066EEA77A37EE277AFB6AD3ED036AD7ED25
:100A4000147A66EEA76AFB6A93ED016AD7ED137A12
:100A500066EE277A76EEA76A97ED1B6AD7ED1D7AC8
:100A600036EE676AD7ED147A26EE276AD7ED1F5A5D
:100A7000D7ED187A75EEA75AD7ED137A65EEA77AF7
:100A800036EE276AD7ED027A76EE677A66EEA77AB7
:100A900037EE277AFB6AD3ED046AD7ED147A66EE57
:100AA000A76AFB6A93ED026AD7ED117A66EE277AA0
:100AB00076EEE76A97ED1E6AD7ED1A7A36EE276A68
:100AC000D7ED147A26EE276AF6EE005AD7ED1C7A97
:100AD00075EEE75AD7ED197A75EEE75AD7ED137A26
:100AE00065EEA77A36EE276AD7ED017A76EE677A59
:100AF00066EEA77A77EE277AC7ED0F7AD7ED267ADA
:100B0000B1EE677AD7ED1A7A77EEA76AD7ED227A37
:100B100076EEE76AD7ED067A76EEE77A27EE277A61
:100B2000D7ED1F7A77EEA76AD7ED217A76EEA76A1E
:100B3000D7ED057A76EEE76AD7ED237A66EEA77AE7
:100B400037EE277AFB6AD3ED036AF1EE007A66EEA0
:100B5000A76AD7ED1C7A77EEA77AB7EE006A36EE71
:100B6000676AD7ED197A77EEA77A36EE676AD7ED1E
:100B7000047A76EE677A66EEA77A37EE677AD7ED73
:100B8000127AF1EE676AFB6AD3ED037A66EEA76A22
:100B9000FB6A93ED016AD7ED137A66EE277A76EE5B
:100BA000E76AB6EE006AD7ED197A36EE676AD7EDD6
:100BB000177A36EE676AD7ED147A26EE276AD7EDF4
:100BC0001A5AD7ED1E7A75EEE75AD7ED137A65EE0D
:100BD000A77A36EE276AD7ED037A76EE677A66EE65
:100BE000A77A37EE277AFB6AD3ED026AD7ED147A3B
:100BF00066EEA76AFB6A93ED046AD7ED137A66EE98
:100C0000277A76EEA76A97ED1B6AD7ED1D7A36EE46
:100C1000676AD7ED147A26EE276AD7ED1F5AD7ED0B
:100C2000187A75EEA75AD7ED137A65EEA77A36EEE5
:100C3000276AD7ED027A76EE677A66EEA77A37EE04
:100C4000277AFB6AD3ED016AD7ED147A66EEA76ABC
:100C5000FB6A93ED036AD7ED117A66EE277A76EE9A
:100C6000E76A97ED1E6AD7ED1A7A36EE276AD7ED56
:100C7000147A26EE276AF6EE005AD7ED1C7A75EE46
:100C8000E75AD7ED197A75EEE75AD7ED137A65EE84
:100C9000A77A36EE276AD7ED017A76EE677A66EEA6
:100CA000A77A77EE277AC7ED0E7AD7ED1A7A37EE64
:100CB000A77AD7ED227A37EE677AD7ED067A37EE44
:100CC000677AD7ED257A27EE277AD7ED1F7A77EE68
:100CD000A76AD7ED217A76EEA76AD7ED057A76EE88
:100CE000E76AD7ED247A66EEA77A37EE277AD7ED52
:100CF000127AF1EE676AFB6AD3ED047A66EEA76AB0
:100D0000FB6A93ED026AD7ED137A66EE277A76EEE8
:100D1000A76AB6EE006AD7ED197A36EE676AD7EDA4
:100D2000177A36EE676AD7ED147A26EE276AD7ED82
:100D30001A5AD7ED1E7A75EEE75AD7ED137A65EE9B
:100D4000A77A36EE276AD7ED037A76EE677A66EEF3
:100D5000A77A37EE277AD7ED147AF1EE676AFB6A45
:100D6000D3ED017A66EEA76AFB6A93ED036AD7EDCD
:100D7000137A66EE277A76EEA76A97ED1B6AD7EDAF
:100D80001D7A36EE676AD7ED147A26EE276AD7ED1C
:100D90001F5AD7ED187A75EEA75AD7ED137A65EE7C
:100DA000A77A36EE276AD7ED027A76EE677A66EE94
:100DB000A77A37EE277AFB6AD3ED026AD7ED147A69
:100DC00066EEA76A97ED1E6AD7ED1A7A36EE276AA5
:100DD000D7ED147A26EE276AF6EE005AD7ED1C7A84
:100DE00075EEE75AD7ED197A75EEE75AD7ED137A13
:100DF00065EEA77A36EE276AD7ED017A76EE677A46
:100E000066EEA77A77EE277AC7ED0D7A97ED107A1E
:100E1000D7ED107A27EE277AD7ED0F6AD7ED0F7A44
:100E200066EEA77A37EE277AD7ED0E6AD7ED0E7AFF
:100E300066EEA77A37EE277AD7ED0D6AD7ED0D7AF1
:100E400066EEA77A77EE277AB0EE670A00F004FC28
:100E500087ED2B0A97ED107AD7ED2B7A67EE277A7C
:100E6000C7ED107A97ED0F7AD7ED2B7A67EE277AD8
:100E7000C7ED0F7A97ED0E7AD7ED2B7A67EE277ACA
:100E8000C7ED0E7A97ED0D7AD7ED2B7A67EE277ABC
:100E9000C7ED0D7AFB6A93ED007AD7ED107A67EE15
:100EA000277A97ED2F7A77EE677AC7ED2F7AFB6A6C
:100EB00093ED007AD7ED0F7A67EE277A97ED2E7AC9
:100EC00077EE677AC7ED2E7AFB6A93ED007AD7ED5D
:100ED0000E7A67EE277A97ED2D7A77EE677AC7ED6F
:100EE0002D7AFB6A93ED007AD7ED0D7A67EE277ABB
:100EF00097ED2C7A77EE677AC7ED2C7AFB6A93ED43
:100F0000017AD7ED2F6AD7ED0A7A66EEA77A77EEE7
:100F1000277AFB6AC3ED017AFB6A93ED027AD7ED7B
:100F20002E6AD7ED0A7A66EEA77A77EE277AFB6A01
:100F3000C3ED027AFB6A93ED037AD7ED2D6AD7ED04
:100F40000A7A66EEA77A77EE277AFB6AC3ED037A10
:100F5000FB6A93ED047AD7ED2C6AD7ED0A7A66EE38
:100F6000A77A77EE277AFB6AC3ED047AFB6A93EDE2
:100F7000017AFB6AD3ED017A27EE277AFB6AD3ED7B
:100F8000026AFB6AD3ED027A66EEA77A37EE277A19
:100F9000FB6AD3ED036AFB6AD3ED037A66EEA77AA8
:100FA00037EE277AFB6AD3ED046AFB6AD3ED047A45
:100FB00066EEA77A77EE277AB0EE670A00F04CFB70
:100FC00087ED2B0AFB6A93ED017AD7ED2B7A67EE5A
:100FD000277AFB6AC3ED017AFB6A93ED027AD7EDBB
:100FE0002B7A67EE277AFB6AC3ED027AFB6A93EDF0
:100FF000037AD7ED2B7A67EE277AFB6AC3ED037A83
:10100000FB6A93ED047AD7ED2B7A67EE277AFB6AB9
:10101000C3ED047AC037BD4680BD00BF80B59EB029
:1010200000AFF86187ED060AC7ED050A87ED041ADF
:10103000C7ED031A87ED022AC7ED012A87ED003AB2
:10104000FB69D3ED027AB1EE677AD7ED057A27EE28
:10105000277AFB69D3ED036AD7ED047A66EEA77AA7
:1010600037EE677AFB69D3ED046AD7ED037A66EE53
:10107000A77A37EE677AF6EE007A67EE277AC7ED41
:101080001D7AFB6993ED017AD7ED057A27EE277A71
:10109000FB69D3ED036AD7ED037A66EEA77A37EEE4
:1010A000277AFB69D3ED046AD7ED047A66EEA77A56
:1010B00037EE677AF6EE007A67EE277AC7ED1C7A8C
:1010C000FB6993ED017AD7ED047A27EE277AFB6965
:1010D000D3ED026AD7ED037A66EEA77A37EE677A28
:1010E000FB69D3ED046AD7ED057A66EEA77A37EE91
:1010F000277AF6EE007A67EE277AC7ED1B7AFB694E
:1011000093ED017AD7ED037A27EE277AFB69D3EDC9
:10111000026AD7ED047A66EEA77A37EE277AFB6982
:10112000D3ED036AD7ED057A66EEA77A37EE677AD4
:10113000F6EE007A67EE277AC7ED1A7AD7ED027AD3
:10114000F5EE407AF1EE10FA0ED1D7ED017AF5EE18
:10115000407AF1EE10FA07D1D7ED007AF5EE407A39
:10116000F1EE10FA00F0E98197ED027AD7ED027AFC
:1011700027EE277AD7ED016AD7ED017A66EEA77AD6
:1011800037EE277AD7ED006AD7ED007A66EEA77AB8
:1011900077EE277AB0EE670A00F05EFA87ED190A5B
:1011A00097ED027AD7ED197A67EE277AC7ED027AC2
:1011B00097ED017AD7ED197A67EE277AC7ED017AB4
:1011C00097ED007AD7ED197A67EE277AC7ED007AA6
:1011D000FB69D3ED017A77EEA77AC7ED187AFB6940
:1011E000D3ED027A77EEA77AC7ED177AFB69D3EDD4
:1011F000037A77EEA77AC7ED167AFB69D3ED047A06
:1012000077EEA77AC7ED157AFB6993ED017AF1EED7
:10121000007A67EE277AC7ED147AFB6993ED027ABC
:10122000F1EE007A67EE277AC7ED137AFB6993ED4A
:10123000037AF1EE007A67EE277AC7ED127AFB693E
:1012400093ED027AF2EE007A67EE277AC7ED117A13
:10125000FB6993ED037AF2EE007A67EE277AC7ED29
:10126000107AFB6993ED017AFB69D3ED017A67EEA1
:10127000277AC7ED0F7AFB6993ED027AFB69D3ED0C
:10128000027A67EE277AC7ED0E7AFB6993ED037A4F
:10129000FB69D3ED037A67EE277AC7ED0D7AFB6918
:1012A00093ED047AFB69D3ED047A67EE277AC7EDF4
:1012B0000C7A97ED147AD7ED0D7A27EE277AD7EDD1
:1012C000166AD7ED027A66EEA77A37EE277AD7ED5F
:1012D000146AD7ED0E7A66EEA77A37EE277AD7ED45
:1012E000176AD7ED017A66EEA77A77EE677AC7EDCF
:1012F0000B7A97ED137AD7ED0C7A27EE277AD7ED94
:10130000156AD7ED027A66EEA77A37EE677AD7EDDF
:101310000F6AF1EE007A66EEA76AFB69D3ED027AF6
:1013200066EEA77A37EE277AD7ED186AD7ED017AFD
:1013300066EEA77A37EE677AD7ED137A37EE677ADB
:10134000D7ED116AD7ED0E7A66EEA77A37EE277AD7
:10135000D7ED116AD7ED0D7A66EEA77A37EE277AC8
:10136000D7ED136AD7ED007A66EEA77A77EE277A83
:10137000C7ED0A7A97ED0F7AF1EE007A27EE277A19
:10138000FB69D3ED037A27EE277AD7ED186AD7EDFC
:10139000027A66EEA77A37EE277AD7ED126AD7ED92
:1013A0000C7A66EEA77A37EE277AD7ED156AD7ED75
:1013B000017A66EEA77A37EE677AD7ED127A37EEC2
:1013C000677AD7ED106AD7ED0E7A66EEA77A37EE18
:1013D000277AD7ED106AD7ED0D7A66EEA77A37EE49
:1013E000277AD7ED126AD7ED007A66EEA77A77EE04
:1013F000277AC7ED097A97ED0E7AF1EE007A27EE9B
:10140000277AFB69D3ED047A27EE277AD7ED176A9E
:10141000D7ED027A66EEA77A37EE677AD7ED0D6AD6
:10142000F1EE007A66EEA76AFB69D3ED047A66EE08
:10143000A77A37EE277AD7ED166AD7ED017A66EEEE
:10144000A77A77EE677AC7ED087A97ED0B7AD7ED32
:101450000B7A27EE277AD7ED0A6AD7ED0A7A66EE7D
:10146000A77A37EE277AD7ED096AD7ED097A66EEC3
:10147000A77A37EE277AD7ED086AD7ED087A66EEB5
:10148000A77A77EE277AB0EE670A00F0E5F887EDE5
:10149000190A97ED0B7AD7ED197A67EE277AC7ED1F
:1014A0000B7A97ED0A7AD7ED197A67EE277AC7EDAE
:1014B0000A7A97ED097AD7ED197A67EE277AC7EDA0
:1014C000097A97ED087AD7ED197A67EE277AC7ED92
:1014D000087AFB6993ED007AD7ED0B7A67EE277AED
:1014E00097ED1D7A77EE677AC7ED1D7AFB6993ED6C
:1014F000007AD7ED0A7A67EE277A97ED1C7A77EEB5
:10150000677AC7ED1C7AFB6993ED007AD7ED097A0B
:1015100067EE277A97ED1B7A77EE677AC7ED1B7A2D
:10152000FB6993ED007AD7ED087A67EE277A97ED9D
:101530001A7A77EE677AC7ED1A7AFB6993ED017A2A
:10154000D7ED1D6AD7ED067A66EEA77A77EE277A91
:10155000FB69C3ED017AFB6993ED027AD7ED1C6A52
:10156000D7ED067A66EEA77A77EE277AFB69C3EDA8
:10157000027AFB6993ED037AD7ED1B6AD7ED067A01
:1015800066EEA77A77EE277AFB69C3ED037AFB69EB
:1015900093ED047AD7ED1A6AD7ED067A66EEA77A4C
:1015A00077EE277AFB69C3ED047AFB6993ED017A44
:1015B000FB69D3ED017A27EE277AFB69D3ED026A46
:1015C000FB69D3ED027A66EEA77A37EE277AFB69DC
:1015D000D3ED036AFB69D3ED037A66EEA77A37EEA3
:1015E000277AFB69D3ED046AFB69D3ED047A66EED2
:1015F000A77A77EE277AB0EE670A00F02DF887ED2C
:10160000190AFB6993ED017AD7ED197A67EE277A0B
:10161000FB69C3ED017AFB6993ED027AD7ED197A84
:1016200067EE277AFB69C3ED027AFB6993ED037AD3
:10163000D7ED197A67EE277AFB69C3ED037AFB6968
:1016400093ED047AD7ED197A67EE277AFB69C3ED3B
:10165000047A7837BD4680BD80B487B000AF87ED8F
:10166000010A97ED017AF6EE007A67EE277AC7ED68
:10167000057A7B683B6107F110031B68FB60FB6820
:101680005A10124B9B1AFB6007F10C031B683B615D
:1016900097ED047AD7ED057A27EE277AD7ED047A0D
:1016A00067EE277AB7EE087A37EE677AD7ED047AD5
:1016B00067EE277AC7ED047A3B6907EE903AB0EE01
:1016C000670A1C37BD465DF8047B7047DF59375FFA
:1016D00080B485B000AF78600023FB60124B5B687C
:1016E000FB60FB6823F4FD4323F07F03FB607B6812
:1016F0001B7D1A467B689B681A437B685B681A43AC
:101700007B68DB681A437B681B681A437B681B692C
:101710001343FA681343FB60034BFA685A601437AB
:10172000BD465DF8047B7047002C014080B483B057
:1017300000AF78607B6800221A757B6800221A600F
:101740007B6800225A607B6800229A607B680022D6
:10175000DA607B6800221A610C37BD465DF8047BB5
:10176000704700BF80B483B000AF0346FB71044BE9
:10177000FA791A600C37BD465DF8047B704700BFEC
:10178000A080254280B483B000AF7860034B7A68B4
:101790001A600C37BD465DF8047B7047002C014091
:1017A00080B400AF044B1B6803F003031846BD462A
:1017B0005DF8047B704700BF002C014080B485B009
:1017C00000AF78600023FB60114B7A6812689A6062
:1017D0000F4BDB68FB60FB6823F4FF6323F0070318
:1017E000FB607B685A687B689B681A437B68DB6890
:1017F0001A437B681B691343FA681343FB60044B6D
:10180000FA68DA601437BD465DF8047B704700BFA4
:10181000002C014080B400AF034B1B69DBB21846BB
:10182000BD465DF8047B7047002C014080B485B054
:1018300000AF78600023FB607A68054B1344FB60BF
:10184000FB681B6818461437BD465DF8047B70477B
:10185000142C014080B485B000AF78600023FB6099
:10186000124B7A6812685A62104B7A6852689A6210
:101870000E4BDB6AFB60FB6823F0F703FB607B68C1
:101880009A687B68DB681A437B681B691A437B682C
:101890005B691343FA681343FB60044BFA68DA622E
:1018A0001437BD465DF8047B704700BF002C014033
:1018B00080B400AF034BD3F880301846BD465DF8C6
:1018C000047B7047002C014080B483B000AF786087
:1018D000044B7A68C3F880200C37BD465DF8047B62
:1018E000704700BF002C014080B485B000AF786025
:1018F0000023FB73084B5A6B7B681340002B02D00C
:101900000123FB7301E00023FB73FB7B18461437B4
:10191000BD465DF8047B7047002C014080B483B065
:1019200000AF7860034B7A689A630C37BD465DF868
:10193000047B7047002C014080B582B000AF214885
:1019400008210C2203F05AFA1E480C210C2203F045
:1019500055FA1D4802210C2203F050FA3B46184666
:1019600003F0E4F94FF480733B6003237B7102239F
:101970003B710023BB710123FB713B4611481946A3
:1019800003F046F904233B603B460F48194603F039
:101990003FF94FF480533B600023FB713B460948FD
:1019A000194603F035F901233B6000233B71012305
:1019B000FB713B460448194603F02AF90837BD4637
:1019C00080BD00BF00080240000C024080B582B01C
:1019D00000AF0023FB710C20012101F0E9FF4FF45F
:1019E0000060012102F020F800F074F80346FB715A
:1019F000FB79DBB2002B02D0FB79DBB24CE000F0CC
:101A000083F90346FB71FB79DBB2002B02D0FB7933
:101A1000DBB241E0224800F03DFA0346FB71FB795E
:101A2000DBB2002B02D0FB79DBB235E01C4BB3F804
:101A300054301B04184600F003FD0346FB71FB798C
:101A4000DBB2002B02D0FB79DBB225E0002001F0F5
:101A500043F90346FB71FB79DBB2002B02D0FB7923
:101A6000DBB219E00F48FFF761FE0E4B04221A7536
:101A70000C4B00221A600B4B00225A60094B4FF4AA
:101A800000729A60074B0022DA60064B00221A614E
:101A90000448FFF71DFE002318460837BD4680BDE9
:101AA00088360120E036012080B582B000AF0123E6
:101AB000FB710748012103F053F90346012B01D1C3
:101AC0000023FB71FB79DBB218460837BD4680BDA9
:101AD000000C024080B586B000AF0023FB710023EC
:101AE0007B6100233B610023FB600023BB608348D4
:101AF000FFF71CFE814B76221A75804B00221A607C
:101B00007E4B00225A607D4B00229A607B4B002264
:101B1000DA607A4B00221A617848FFF7D9FD03207A
:101B2000FFF730FE0120FFF71DFE754B00221A6003
:101B3000734B00225A60724B00229A60704B002255
:101B4000DA606F4B4FF480621A616D48FFF736FE22
:101B500000F0CEFE0346FB71FB79DBB2002B02D016
:101B6000FB79DBB2C5E0664B4FF4D5721A60644B6B
:101B700008225A60624B40229A60614B0022DA6070
:101B80005F4B4FF480621A615D48FFF717FE00F06B
:101B9000D5FE0346FB71FB79DBB2002B06D1594B16
:101BA00001221A604FF08043BB6017E0544B0022C3
:101BB0001A60534B37225A60514B40229A60504B67
:101BC0000022DA604E4B4FF480621A614C48FFF7F6
:101BD000F5FD372000F0EEFE0346FB71484B002276
:101BE0001A60474B37225A60454B40229A60444B5B
:101BF0000022DA60424B4FF480621A614048FFF7DE
:101C0000DDFD372000F0D6FE0346FB71FB79DBB229
:101C1000002B6CD14FE03A4B00221A60384B372230
:101C20005A60374B40229A60354B0022DA60344BC1
:101C30004FF480621A613248FFF7C0FD372000F090
:101C4000B9FE0346FB71FB79DBB2002B02D0FB79B6
:101C5000DBB24EE0BB6843F0004343F48013284AF4
:101C60001360274B29225A60254B40229A60244B4F
:101C70000022DA60224B4FF480621A612048FFF79D
:101C80009DFD00F067FF0346FB71FB79DBB2002B83
:101C900002D0FB79DBB22CE00020FFF7C7FD7861B2
:101CA0007B69DB0F012B14BF00230123DBB2FB6038
:101CB0003B6901333B61FB68002B04D13A694FF665
:101CC000FE739A42A7D93A694FF6FE739A4204D935
:101CD0001B23FB71FB79DBB20BE07B6903F08043D4
:101CE0007B617B69002B02D0064B02221A60FB79D4
:101CF000DBB218461837BD4680BD00BFE036012074
:101D0000703601209408002080B582B000AF002317
:101D1000FB710123BB80FFF743FD0346002B03D17A
:101D20002523FB71FB79A7E0554B1B68042B33D0AF
:101D3000544B00221A60534B02225A60514BC0226E
:101D40009A60504B0022DA604E4B4FF480621A6169
:101D50004C48FFF733FD00F025FF0346FB71FB798C
:101D6000002B01D0FB7987E00020FFF75FFD0246E2
:101D7000454B1A600420FFF759FD0246424B5A605A
:101D80000820FFF753FD02463F4B9A600C20FFF7F7
:101D90004DFD02463C4BDA60394B1B68002B0BD0E3
:101DA000374B1B68012B07D0354B1B68062B03D024
:101DB000334B1B68022B1ED1324B00221A60314B71
:101DC00003225A602F4B40229A602E4B0022DA6089
:101DD0002C4B4FF480621A612A48FFF7EFFC3B1D41
:101DE0000320194600F012FF0346FB71FB79002B1C
:101DF00001D0FB7940E0224B1B68042B39D0BB8813
:101E00001A46224B1A60BB881B041A461D4B1A60E7
:101E10001C4B09225A601B4BC0229A60194B0022AE
:101E2000DA60184B4FF480621A611648FFF7C6FC5F
:101E300000F0B8FE0346FB71FB79002B01D0FB7963
:101E40001AE00020FFF7F2FC0246114B1A60042052
:101E5000FFF7ECFC02460E4B5A600820FFF7E6FC49
:101E600002460B4B9A600C20FFF7E0FC0246084B41
:101E7000DA600023FB71FB7918460837BD4680BD48
:101E80009408002070360120A8080020B80800201F
:101E900098080020B0B485B000AF78600023BB7311
:101EA0000023FB738C4B1B68DAB27B6883F85620E7
:101EB0008A4B1B689AB27B68A3F85420884B1B6836
:101EC0001B0EFB73FB7B9B09DAB27B681A70FB7BF2
:101ED00003F03C039B10DAB27B685A70FB7B03F083
:101EE0000303DAB27B689A707D4B1B6803F47F03AF
:101EF0001B0CFB737B68FA7BDA70794B1B6803F46D
:101F00007F431B0AFB737B68FA7B1A71744B1B6857
:101F1000FB737B68FA7B5A71714B5B681B0EFB731A
:101F2000FB7B9BB21B019AB27B68DA806C4B5B68CF
:101F300003F47F031B0CFB737B68DB889AB2FB7B8B
:101F40001B09DBB213439AB27B68DA80FB7B03F098
:101F50000F03DAB27B681A72614B5B6803F47F434C
:101F60001B0AFB73FB7BDB09DAB27B685A72FB7BD3
:101F700003F040039B11DAB27B689A72FB7B03F09B
:101F800020035B11DAB27B68DA72FB7B03F010038B
:101F90001B11DAB27B681A737B6800225A734E4BAE
:101FA0001B68002B04D04C4B1B68012B40F09A801F
:101FB000FB7B03F003039B021A467B681A61484BC4
:101FC0005B68FB737B681A69FB7B9B001A437B6829
:101FD0001A61434B9B681B0EFB737B681A69FB7B82
:101FE0009B09DBB21A437B681A61FB7B03F0380361
:101FF000DB10DAB27B681A75FB7B03F00703DAB2F9
:102000007B685A75364B9B6803F47F031B0CFB738C
:10201000FB7B5B09DAB27B689A75FB7B03F01C03E0
:102020009B10DAB27B68DA75FB7B03F00303DBB24B
:102030005B00DAB27B681A76294B9B6803F47F4316
:102040001B0AFB737B681B7EDAB2FB7BDB09DBB20E
:102050001343DAB27B681A767B681B6901331A4630
:102060004FF000037968C1E912237B68D3E91201BC
:102070007B681B7EDBB20233012202FA03F31A46AD
:102080004FEAE27302FB01F500FB03F42C44A0FBD2
:102090000223E1180B467968C1E912237B681B7A99
:1020A000DBB2012202FA03F31A467B681A657B68E9
:1020B000D3E912017B681B6D1A464FF0000302FB47
:1020C00001F500FB03F42C44A0FB0223E1180B46AE
:1020D0007968C1E912233EE094080020B808002086
:1020E00098080020A94B1B68022B34D1A84B5B68D1
:1020F000FB73FB7B03F03F031B041A467B681A61EA
:10210000A34B9B681B0EFB737B681A69FB7B1B024E
:102110001A437B681A619E4B9B6803F47F031B0C78
:10212000FB737B681A69FB7B1A437B681A61984BC7
:102130009B6803F47F431B0AFB737B681B690133B5
:10214000DB041A464FF000037968C1E912237B686B
:102150004FF400721A65FB7B03F040039B11DAB267
:102160007B685A76FB7B03F03F03DBB25B00DAB29D
:102170007B689A76864B9B68FB737B689B7EDAB2A2
:10218000FB7BDB09DBB21343DAB27B689A76FB7B1D
:1021900003F07F03DAB27B68DA767D4BDB681B0ED7
:1021A000FB73FB7BDB09DAB27B681A77FB7B03F0FE
:1021B00060035B11DAB27B685A77FB7B03F01C0388
:1021C0009B10DAB27B689A77FB7B03F00303DBB2E8
:1021D0009B00DAB27B68DA776D4BDB6803F47F0330
:1021E0001B0CFB737B68DB7FDAB2FB7B9B09DBB2EA
:1021F0001343DAB27B68DA77FB7B03F020035B11D1
:10220000DAB27B6883F820207B68002283F82120E3
:10221000FB7B03F00103DAB27B6883F822205C4B7E
:10222000DB6803F47F431B0AFB73FB7BDB09DAB239
:102230007B6883F82320FB7B03F040039B11DAB219
:102240007B6883F82420FB7B03F020035B11DAB268
:102250007B6883F82520FB7B03F010031B11DAB2A7
:102260007B6883F82620FB7B03F00C039B10DAB21B
:102270007B6883F82720FB7B03F00303DAB27B68DB
:1022800083F82820424BDB68FB73FB7B5B08DAB2E8
:102290007B6883F829207B68012283F82A203D4B44
:1022A0001B681B0EFB737B68FA7B83F82C20394B71
:1022B0001B6803F47F031B0CFB73FB7B9BB21B02AD
:1022C0009AB27B68DA85334B1B6803F47F431B0AA1
:1022D000FB737B68DB8D9AB2FB7B9BB213439AB294
:1022E0007B68DA852B4B1B68FB73FB7B1B061A464E
:1022F0007B681A63274B5B681B0EFB737B681A6B4A
:10230000FB7B1B041A437B681A63224B5B6803F454
:102310007F031B0CFB737B681A6BFB7B1B021A434E
:102320007B681A631B4B5B6803F47F431B0AFB73D8
:102330007B681A6BFB7B1A437B681A63154B5B68DF
:10234000FB737B68FA7B83F83420124B9B681B0E6F
:10235000FB737B68FA7B83F835200E4B9B6803F494
:102360007F031B0CFB73FB7B1B061A467B689A637F
:10237000084B9B6803F47F431B0AFB737B689A6BD3
:10238000FB7B1B041A437B689A6305E094080020DA
:1023900098080020A8080020284B9B68FB737B68E6
:1023A0009A6BFB7B1B021A437B689A63234BDB68A7
:1023B0001B0EFB737B689A6BFB7B1A437B689A63EB
:1023C0001E4BDB6803F47F031B0CFB737B6893F8E5
:1023D0003C30DAB2FB7B1B09DBB21343DAB27B6819
:1023E00083F83C20FB7B9BB203F00F039BB21B02E4
:1023F0009AB27B68DA87114BDB6803F47F431B0AD0
:10240000FB737B68DB8F9AB2FB7B9BB213439AB260
:102410007B68DA87094BDB68FB73FB7B5B08DAB20E
:102420007B6883F840207B68012283F84120BB7BD6
:1024300018461437BD46B0BC704700BFA80800203E
:1024400080B584B000AF78600023FB73164B7A68C8
:102450001A60154B07225A60134B40229A60124BA8
:102460000022DA60104B4FF480621A610E48FFF7C9
:10247000A5F9072000F09EFA0346FB73FB7B002BB7
:1024800001D0FB7B0CE00020FFF7D0F9034603F0FE
:102490000073002B03D00E23FB73FB7B00E0FB7B60
:1024A00018461037BD4680BD7036012090B589B002
:1024B00000AFF860B9601346FB8000BF7648FFF7B5
:1024C00013FA0346002BF9D10023FB750023FB61AF
:1024D000FB68BB61714B00221A70714B00221A60BD
:1024E000704B00221A60704B0022DA626F4B1B683F
:1024F000022B05D14FF40073FB80BB685B0ABB6005
:10250000FA886B4B1A606A4B10225A60684B402263
:102510009A60674B0022DA60654B4FF480621A6163
:102520006348FFF74BF9102000F044FA0346FB75AF
:10253000FB7D002B01D0FB7DA9E05E4B4FF0FF320D
:102540001A60FA885B4B5A605A4B90229A60594B3A
:102550000222DA60574B00221A61564B01225A615F
:102560005448FFF777F9524BBA681A60504B112262
:102570005A604F4B40229A604D4B0022DA604C4B20
:102580004FF480621A614A48FFF718F9112000F0F1
:1025900011FA0346FB75FB7D002B01D0FB7D76E035
:1025A0001AE04FF40040FFF79FF90346002B13D0C9
:1025B0000023FB610AE0FB699B00BA69D418FFF7AE
:1025C00077F903462360FB690133FB61FB69072B45
:1025D000F1D9BB692033BB61334B5A6B40F22A639C
:1025E0001340002BDDD00820FFF77EF90346002BB7
:1025F00006D00820FFF792F90423FB75FB7D46E027
:102600000220FFF771F90346002B06D00220FFF7E6
:1026100085F90223FB75FB7D39E02020FFF764F983
:102620000346002B06D02020FFF778F90623FB7520
:10263000FB7D2CE04FF40070FFF756F90346002BAA
:1026400007D04FF40070FFF769F90723FB75FB7D96
:102650001DE04FF0FF33FB610AE0FFF729F9024666
:10266000BB691A60BB690433BB61FB69013BFB6159
:102670004FF40010FFF738F90346002B02D0FB6936
:10268000002BEAD140F2FF50FFF748F9FB7D1846D6
:102690002437BD4690BD00BF00101400D0080020B4
:1026A000D4080020CC080020002C01409408002011
:1026B00070360120F836012080B58AB000AFF8608E
:1026C000B9601346FB8000BF8148FFF70DF9034650
:1026D000002BF9D10023FB7600237B6200233B62B1
:1026E00000237B61FB68FB617A4B00221A707A4BF6
:1026F00000221A60794B00221A60794B0022DA62BC
:10270000784B1B68022B05D14FF40073FB80BB682C
:102710005B0ABB60FA88744B1A60734B10225A60D4
:10272000714B40229A60704B0022DA606E4B4FF47E
:1027300080621A616C48FFF741F8102000F03AF906
:102740000346FB76FB7E002B01D0FB7EBBE0664B95
:10275000BA681A60644B18225A60634B40229A6030
:10276000614B0022DA60604B4FF480621A615E4870
:10277000FFF724F8182000F01DF90346FB76FB7ED6
:10278000002B01D0FB7E9EE0584B4FF0FF321A60C9
:10279000FA88564B5A60554B90229A60534B002250
:1027A000DA60524B00221A61504B01225A614F48A5
:1027B000FFF750F849E04FF48040FFF795F80346E3
:1027C000002B42D07B6AC3F500731F2B26D87B6A8F
:1027D0005B4203F00303002B04D17B6AC3F5007353
:1027E0009B0804E07B6AC3F500739B0801337B619F
:1027F00000233B620DE0FB691B681846FFF764F895
:102800003B6A01333B62FB690433FB617B6A04333F
:102810007B623A6A7B699A42EDD316E000233B6201
:102820000AE03B6A9B00FA6913441B681846FFF7ED
:102830004BF83B6A01333B623B6A072BF1D9FB69DA
:102840002033FB617B6A20337B62254B5A6B40F25D
:102850001A631340002BAED00820FFF745F803465B
:10286000002B06D00820FFF759F80423FB76FB7EE7
:1028700029E00220FFF738F80346002B06D002209B
:10288000FFF74CF80223FB76FB7E1CE01020FFF7DD
:102890002BF80346002B06D01020FFF73FF8052346
:1028A000FB76FB7E0FE04FF40070FFF71DF8034648
:1028B000002B07D04FF40070FFF730F80723FB76AA
:1028C000FB7E00E0FB7E18462837BD4680BD00BF7A
:1028D00000101400D0080020D4080020CC080020EC
:1028E000002C01409408002070360120F8360120A9
:1028F00080B582B000AF0023FB704FF480337B6063
:1029000002E07B68013B7B607B68002B05D0802068
:10291000FEF7EAFF0346002BF3D07B68002B03D1C0
:102920000323FB70FB7804E040F2FF50FEF7F6FF54
:10293000FB7818460837BD4680BD00BF80B584B01F
:1029400000AF0023FB714FF48033BB60184B5B6B0F
:10295000FB6005E0BB68013BBB60154B5B6BFB603C
:10296000FB6803F04503002B02D1BB68002BF1D1BB
:10297000BB68002B04D0FB6803F00403002B06D0D7
:102980000323FB710420FEF7C9FFFB790CE0FB6811
:1029900003F04003002B06D00023FB714020FEF71C
:1029A000BDFFFB7900E0FB7918461037BD4680BDBE
:1029B000002C014080B586B000AF0346FB710023B8
:1029C000FB74624B5B6B7B6102E0604B5B6B7B611A
:1029D0007B6903F04503002BF7D07B6903F0040308
:1029E000002B06D00323FB740420FEF797FFFB7C2B
:1029F000A8E07B6903F00103002B06D00123FB74E0
:102A00000120FEF78BFFFB7C9CE0FEF703FF0346F3
:102A1000FA799A4203D01023FB74FB7C92E040F2D7
:102A2000FF50FEF77BFF0020FEF700FFF860FA681A
:102A3000474B1340002B01D1FB7C83E0FB68002B4C
:102A400001DA1C237EE0FB6803F08043002B01D0F9
:102A5000092377E0FB6803F00053002B01D00A2321
:102A600070E0FB6803F08053002B01D00B2369E07A
:102A7000FB6803F00063002B01D00C2362E0FB68CD
:102A800003F08063002B01D00D235BE0FB6803F0B3
:102A90008073002B01D00E2354E0FB6803F4000385
:102AA000002B01D00F234DE0FB6803F48003002BC3
:102AB00001D0102346E0FB6803F40013002B01D083
:102AC00011233FE0FB6803F48013002B01D0122395
:102AD00038E0FB6803F40023002B01D0132331E01E
:102AE000FB6803F48023002B01D014232AE0FB6849
:102AF00003F40033002B01D0152323E0FB6803F41B
:102B00008033002B01D016231CE0FB6803F4004344
:102B1000002B01D0172315E0FB6803F48043002B42
:102B200001D018230EE0FB6803F40053002B01D002
:102B3000192307E0FB6803F00803002B01D01A23D8
:102B400000E0FB7C18461837BD4680BD002C0140D4
:102B500008E0FFFD80B582B000AF0023FB70104B92
:102B60005B6B7B6002E00E4B5B6B7B607B6803F012
:102B70004503002BF7D07B6803F00403002B06D03D
:102B80000323FB700420FEF7C9FEFB7804E040F24B
:102B9000FF50FEF7C3FEFB7818460837BD4680BDE0
:102BA000002C014080B582B000AF0023FB70164BB3
:102BB0005B6B7B6002E0144B5B6B7B607B6803F0BC
:102BC0004503002BF7D07B6803F00403002B06D0ED
:102BD0000323FB700420FEF7A1FEFB7810E07B6866
:102BE00003F00103002B06D00123FB700120FEF748
:102BF00095FEFB7804E040F2FF50FEF78FFEFB7875
:102C000018460837BD4680BD002C014080B586B00F
:102C100000AF03463960FB710023FB742D4B5B6BE7
:102C20007B6102E02B4B5B6B7B617B6903F04503AF
:102C3000002BF7D07B6903F00403002B06D003239D
:102C4000FB740420FEF76AFEFB7C3FE07B6903F027
:102C50000103002B06D00123FB740120FEF75EFE6A
:102C6000FB7C33E0FEF7D6FD0346FA799A4203D0A7
:102C70001023FB74FB7C29E040F2FF50FEF74EFE70
:102C80000020FEF7D3FDF860FB6803F46043002BDF
:102C900006D1FB681B0C9AB23B681A80FB7C15E0DE
:102CA000FB6803F40053002B01D013230EE0FB68F4
:102CB00003F48043002B01D0102307E0FB6803F4EA
:102CC0000043002B01D00F2300E0FB7C184618378F
:102CD000BD4680BD002C014080B586B000AF0346E4
:102CE000FB710023FB750023FB6000233B61524B0B
:102CF0001B689AB207F10C031046194600F0A0F8C1
:102D00000346FB75FB7D002B01D0FB7D8FE0FB793B
:102D1000012B46D13B6903F48023002B3DD0464B69
:102D20001B681A04454B1A60444B37225A60434BC8
:102D300040229A60414B0022DA60404B4FF480629F
:102D40001A613E48FEF73AFD3720FFF733FE03468F
:102D5000FB75FB7D002B01D0FB7D68E0374B022229
:102D60001A60364B06225A60344B40229A60334B2D
:102D70000022DA60314B4FF480621A612F48FEF76F
:102D80001DFD0620FFF716FE0346FB75FB7D002B9D
:102D900001D0FB7D4BE0FB7D49E02523FB75FB7DEE
:102DA00045E03B6903F48033002B3DD0224B1B6888
:102DB0001A04224B1A60214B37225A601F4B4022C3
:102DC0009A601E4B0022DA601C4B4FF480621A613D
:102DD0001A48FEF7F3FC3720FFF7ECFD0346FB75BE
:102DE000FB7D002B01D0FB7D21E0144B00221A60FB
:102DF000124B06225A60114B40229A600F4B002260
:102E0000DA600E4B4FF480621A610C48FEF7D6FC74
:102E10000620FFF7CFFD0346FB75FB7D002B01D09D
:102E2000FB7D04E0FB7D02E02523FB75FB7D18465E
:102E30001837BD4680BD00BFB8080020703601209D
:102E400080B588B000AF03463960FB800023FB618A
:102E50000023FB760023FB6000233B61794B0822B3
:102E60001A60784B10225A60764B40229A60754B5C
:102E70000022DA60734B4FF480621A617148FEF7EA
:102E80009DFC1020FFF796FD0346FB76FB7E002B92
:102E900001D0FB7ED1E06C4B1B681A04694B1A60B1
:102EA000684B37225A60674B40229A60654B00227C
:102EB000DA60644B4FF480621A616248FEF77EFC70
:102EC0003720FFF777FD0346FB76FB7E002B01D012
:102ED000FB7EB2E05D4B4FF0FF321A605B4B082285
:102EE0005A605A4B30229A60584B0222DA60574B94
:102EF00000221A61554B01225A615448FEF7AAFC80
:102F0000504B00221A604F4B33225A604D4B4022E7
:102F10009A604C4B0022DA604A4B4FF480621A618F
:102F20004848FEF74BFC3320FFF744FD0346FB7691
:102F3000FB7E002B01D0FB7E7FE00023FB6117E0CE
:102F40004FF40010FEF7D0FC0346002B10D0FEF724
:102F5000AFFC7861FB69012B07D8FB699B0007F187
:102F6000200213447A6943F8142CFB690133FB6196
:102F7000374B5A6B40F22A631340002BE0D00820F5
:102F8000FEF7B2FC0346002B06D00820FEF7C6FC75
:102F90000423FB76FB7E50E00220FEF7A5FC0346EF
:102FA000002B06D00220FEF7B9FC0223FB76FB7E45
:102FB00043E02020FEF798FC0346002B06D020209B
:102FC000FEF7ACFC0623FB76FB7E36E04FF4007088
:102FD000FEF78AFC0346002B07D04FF40070FEF783
:102FE0009DFC0723FB76FB7E27E040F2FF50FEF7B7
:102FF00095FC3B680433FA681106FA6802F47F42D4
:1030000012021143FA6802F47F02120A1143FA68AD
:10301000120E0A431A603B691A063B6903F47F43A8
:103020001B021A433B6903F47F031B0A1A433B69E3
:103030001B0E1A433B681A60FB7E18462037BD46BC
:1030400080BD00BF70360120B8080020F83601208E
:10305000002C014080B582B000AF7860786806F03F
:1030600075FF034618460837BD4680BD80B582B05F
:1030700000AF7860786806F071FF0837BD4680BD04
:1030800080B584B000AF0346FB71FB79002B01D003
:10309000012309E0FEF79AFC0346FB73FB7B002B40
:1030A00001D0012300E0002318461037BD4680BD43
:1030B00080B584B000AF0346FB710023FB73FEF7BD
:1030C000F3FC0346012B03D0FB7B43F00203FB73AD
:1030D000FB7B18461037BD4680BD00BF80B586B06B
:1030E00000AFB9607A603B600346FB73FEF7DCFC1F
:1030F0000346012B01D0032314E03B68002B01D1D0
:1031000004230FE07B685B02B86819464FF4007235
:10311000FFF7CCF90346FB75FB7D002B01D00123A3
:1031200000E0002318461837BD4680BD80B586B044
:1031300000AFB9607A603B600346FB73FEF7B4FCF6
:103140000346012B01D0032314E03B68002B01D17F
:1031500004230FE07B685B02B86819464FF40072E5
:10316000FFF7AAFA0346FB75FB7D002B01D0012374
:1031700000E0002318461837BD4680BDB0B59AB0B0
:1031800000AF0B463A600246FA71BB71BB79012B66
:1031900017D107F108031846FEF77CFE034687F8AF
:1031A000673097F86730002B01D0012311E0D7E991
:1031B0001423540A44EAC3545D0A22463B681A6049
:1031C00006E0BB79032B03D13B684FF400721A6011
:1031D000002318466837BD46B0BD00BF80B582B039
:1031E00000AF134B7B60134B3B6007E03B681A1D3D
:1031F0003A607A68111D796012681A603A680E4B5D
:103200009A42F3D30D480E494FF000028842B8BFEE
:1032100040F8042BFFF6FAAFDFF82800016841F40C
:103220007001016000F0E6FA0837BD4680BD00BFBE
:1032300040AB00080000002074080020780800203F
:103240005437012088ED00E080B400AFFEE700BFF6
:1032500080B584B000AF78600820012100F0A8FBA1
:1032600007F10803184601F061FD01233B734FF499
:103270007043BB6000237B7307F1080304481946C1
:1032800001F0C6FC7B6818461037BD4680BD00BF04
:10329000000C024080B582B000AF78600B46FB7036
:1032A000FB78002B01D0012300E0002304484FF4F9
:1032B00080411A4601F08AFD0837BD4680BD00BF37
:1032C000000C024080B582B000AF78600B46FB7006
:1032D000FB78002B01D0012300E0002304484FF4C9
:1032E00080511A4601F072FD0837BD4680BD00BF0F
:1032F000000C024080B582B000AF78600B46FB70D6
:10330000FB78002B01D0012300E0002304484FF498
:1033100000411A4601F05AFD0837BD4680BD00BF86
:10332000000C024080B582B000AF78600B46FB70A5
:10333000FB78002B01D0012300E0002304484FF468
:1033400000511A4601F042FD0837BD4680BD00BF5E
:10335000000C024080B582B000AF7860F970BA709E
:103360007B70FB7878681946FFF794FFBB78786824
:103370001946FFF7A7FF7B7878681946FFF7BAFF71
:103380003B7C78681946FFF7CDFF0837BD4680BD06
:1033900080B582B000AF786004484FF470410022DD
:1033A00001F014FD0837BD4680BD00BF000C02408F
:1033B00080B586B000AFF860B9601346FB80FB684B
:1033C000BA681A60FB68FA889A8007F110031846F9
:1033D00001F0ACFCFB883B6101233B7500237B754E
:1033E000FB681A6807F110031046194601F010FC3B
:1033F000FB6818461837BD4680BD00BF80B582B057
:1034000000AF78607B681A687B689B881046194615
:1034100001F0C0FC0837BD4680BD00BF80B586B056
:1034200000AFF860B9601346FB80FB68BA681A60A9
:10343000FB68FA889A8007F11003184601F076FCC1
:1034400000233B75FB883B6100237B750023FB75E4
:1034500007F11003B868194601F0DAFBFB6818465B
:103460001837BD4680BD00BF80B582B000AF786020
:103470007B681A687B689B881046194601F070FCCF
:103480000346012B17D17B681A687B689B8810461E
:10349000194601F065FC0346012B0CD17B681A68C4
:1034A0007B689B881046194601F05AFC0346012BA5
:1034B00001D1012300E0002318460837BD4680BD36
:1034C00080B483B000AF78607B684FF000021A6070
:1034D0007B684FF000025A607B684FF000029A60F0
:1034E0007B6818460C37BD465DF8047B704700BF0B
:1034F00080B500AF01200821002201F09FFF0246A5
:10350000144B1A6001200C21002201F097FF0246A3
:10351000114B1A6001202021002201F08FFF02468A
:103520000E4B1A60062002F061FB02460C4B1A603B
:10353000084B1A680A4B1B681046194602F066FBD6
:10354000054B1A68064B1B681046194602F05EFBD5
:1035500080BD00BFDC080020E0080020E408002057
:10356000E808002080B586B000AF78607B687B619A
:1035700007F10C037869194605F000FC0346002B9F
:103580000DD0094B1A6807F10C03104619460022AA
:10359000022301F099FF142000F0ACFDE8E70120C0
:1035A00000F0A8FDE4E700BFDC08002080B582B091
:1035B00000AF78607B681846FFF782FF7B6818468B
:1035C0000837BD4680BD00BF80B596B000AF7860BB
:1035D00007F11C031846FFF7E9FF07F10803184637
:1035E000FCF7FCFD00F084FE034607EE103AF8EE0F
:1035F000477AC7ED157A022000F07CFD00F078FED6
:10360000034607EE103AF8EE477AC7ED147A4FF00A
:103610000003FB644FF00003BB644FF000037B64C6
:103620004FF000033B644FF00003FB63214BBB638F
:103630004FF000037B634FF000033B634FF0000348
:10364000FB6297ED147AD7ED157A37EE677ADFEDE6
:103650001A7AC7EE277AC7ED0A7A3B6D7B6507F1C8
:103660000803184697ED0A0AD7ED130A97ED121AC8
:10367000D7ED111A97ED102AD7ED0F2A97ED0E3AD4
:10368000D7ED0D3A97ED0C4AD7ED0B4AFCF7C6FD86
:10369000FB68FB613B693B627B697B62074B1A6895
:1036A00007F11C03104619460022022301F00CFF0B
:1036B000A1E700BF000080BF00007A44E0080020BE
:1036C00090B595B002AF786007F12C031846FFF76C
:1036D0006DFF07F12803184601F056FD002387F817
:1036E0004630002387F84730314B1B6818460A21C3
:1036F00002F0AEFA38642F4B1B683A6C9A420CD138
:103700002C4B1A6807F13803104619460022002393
:1037100002F024F8012387F84730274B1B683A6CE6
:103720009A4214D1244B1A6807F12C03104619460B
:103730000022002302F012F8012387F8463097F8A0
:10374000463083F00103DBB2002B08D100E02DE00E
:1037500097F8473083F00103DBB2002B00D025E05F
:10376000398F3A8F3B8F3C8F07F12800009401F08E
:10377000A7FD00F0BDFD0346BB603B8FBB817B8F87
:10378000FB81BB8F3B82FB8F7B827B6B7B613B6BC7
:10379000BB61FB6AFB61094B1A6807F1080310461D
:1037A00019460022022301F08FFE9DE79CE700BF2F
:1037B000E8080020DC080020E0080020E4080020E1
:1037C00080B58CB000AF78607B68FB62084B1A68EC
:1037D00007F10C03104619464FF0FF32002301F0A9
:1037E000BDFF07F10C03F86A194605F01BF8EDE779
:1037F000E408002090B58DB004AF01F0F7FB012084
:10380000012100F0D5F80420012100F0D1F80820B2
:10381000012100F0CDF81020012100F0C9F80120AD
:10382000FFF718FC04462046FFF712FDFC61012358
:103830000093F869012101220123FFF78BFD082085
:10384000FFF708FC044620464F490122FFF7E6FD3A
:10385000BC6100BFB869FFF707FE034683F00103B0
:10386000DBB2002BF6D1B869FFF7FEFD0346002B53
:10387000F9D1F869FFF78CFD0820FFF7EBFB044650
:10388000204641491022FFF793FD7C617869FFF7DC
:10389000B5FD0820FFF7DEFB044620463A49082222
:1038A000FFF786FD3C610420FFF7D4FB04460023AC
:1038B0000093204635491022002305F04DF8FC60A6
:1038C0001420FFF7C7FB04462046F9687A693B6974
:1038D00004F00AFDBC600820FFF7BCFB044620464C
:1038E000B968FA6905F0FEF97C601020FFF7B2FBB9
:1038F00004462046F969BA6904F0CAFE3C60FFF745
:10390000F7FD042300930023019300230293002377
:1039100003931F481F49C4227B6800F037FB022332
:1039200000930023019300230293002303931A487A
:103930001A49C422002300F029FB0323009300232B
:103940000193002302930023039315481549C422D1
:10395000002300F01BFB01230093002301930023AD
:1039600002930023039310481049C4223B6800F0DF
:103970000DFB00F0F1FB01230093F8690121012206
:103980000123FFF7E7FCFEE70000024000300140A2
:103990006535000848AA0008C93500084CAA000887
:1039A000C136000850AA0008C137000854AA000810
:1039B00080B483B000AF78600B46FB70FB78002BBF
:1039C00006D0094B084A116B7A680A431A6306E06D
:1039D000054B054A116B7A68D2430A401A630C37CB
:1039E000BD465DF8047B70470038024080B483B068
:1039F00000AF78600B46FB70FB78002B06D0094BBC
:103A0000084A116C7A680A431A6406E0054B054AB5
:103A1000116C7A68D2430A401A640C37BD465DF8CF
:103A2000047B70470038024080B483B000AF7860F8
:103A30000B46FB70FB78002B06D0094B084A516CF3
:103A40007A680A435A6406E0054B054A516C7A6865
:103A5000D2430A405A640C37BD465DF8047B704778
:103A60000038024080B586B004AF00237B6000F0D0
:103A700051FA0F4B1B68002B0FD002230093002339
:103A8000019300230293002303930A480A494FF449
:103A9000C472002300F07AFA78607B68002B02D1B0
:103AA00002F022FAFEE77B6818460837BD4680BD63
:103AB0001C090020B93B000858AA000880B588B04E
:103AC00000AFF860B9607A603B600023FB611D4B7A
:103AD0001B68002B30D0BB683B617B687B61FB6857
:103AE000BB61BB68052B1CDC00F0B4FF0346022B56
:103AF0000BD1144B1A6807F1100310461946BA6A25
:103B0000002301F0E1FCF86116E00E4B1A6807F1A2
:103B10001003104619460022002301F0D5FCF8617D
:103B20000AE0084B1A6807F11003104619463A6874
:103B3000002301F097FDF861FB6918462037BD4668
:103B400080BD00BF1C09002080B586B002AF786040
:103B50003960184B1B68DB68DB68FB60FB6804336B
:103B6000184601F019FAFB68DB69012B1BD1FB68D1
:103B70009A697B681344F86819463A687B6800F0D4
:103B8000A7F80346012B0ED100230093F86800210B
:103B90007A680023FFF792FFB860BB68002B02D160
:103BA00002F0A2F9FEE7FB685B6AF86898471037F5
:103BB000BD4680BD1409002080B584B000AF786098
:103BC00007F10803184600F03FF8F860BB68F86892
:103BD000194600F003F800F0BDF8F1E780B584B0B5
:103BE00000AF7860396000F0EFFA07F1080318467B
:103BF00000F04EF8F860BB68002B1ED13B68002B2C
:103C00000AD17A68FB689A4206D800F0EBFA786825
:103C1000F968FFF799FF12E00A4B1A687968FB68A8
:103C2000CB1A1046194601F0B5FF00F0DBFA034647
:103C3000002B04D102F020F901E000F0D3FA103794
:103C4000BD4680BD1C09002080B485B000AF7860FF
:103C50000E4B1B681B68002B14BF00230123DBB233
:103C60001A467B681A607B681B68002B05D1074BDE
:103C70001B68DB681B68FB6001E00023FB60FB68DE
:103C800018461437BD465DF8047B704714090020C0
:103C900080B584B000AF786000F02AFBF8600B4B71
:103CA0001B68FA689A4205D200F0DCF87B680122B2
:103CB0001A6002E07B6800221A60044BFA681A60FE
:103CC000FB6818461037BD4680BD00BF20090020A4
:103CD00080B586B000AFF860B9607A603B600023C1
:103CE0007B61FB68BA685A60FB68FA681A61BA6857
:103CF0007B689A4212D87A683B68D21AFB689B6943
:103D00009A4202D301237B611BE0104B1A68FB68C7
:103D100004331046194601F007F912E07A683B684F
:103D20009A4206D2BA683B689A4202D301237B6169
:103D300007E0074B1A68FB6804331046194601F088
:103D4000F3F87B6918461837BD4680BD1809002076
:103D50001409002080B58AB002AF70E0BB68002B68
:103D60006DDB3B69FB61FB695B69002B04D0FB6980
:103D70000433184601F010F93B1D1846FFF788FF81
:103D8000B861BB68092B59D801A252F823F000BFD3
:103D9000B93D0008B93D0008B93D00083D3E0008A6
:103DA0000B3E0008353E0008B93D0008B93D00084B
:103DB0003D3E00080B3E0008FA68FB699B691A4407
:103DC000FB68F8691146BA69FFF782FF0346012BC9
:103DD0001AD1FB695B6AF8699847FB69DB69012BBB
:103DE00012D1FA68FB699B69134400220092F869BA
:103DF00000211A460023FFF761FE78617B69002BE2
:103E000002D102F071F8FEE719E0FA68FB699A61E5
:103E1000FB699B69002B02D102F066F8FEE7FB69A3
:103E20009A69BB691344F8691946BA69BB69FFF717
:103E30004FFF04E0F86904F0F5FE00E000BF084B16
:103E40001A6807F10803104619460022002301F002
:103E500085FC0346002B81D12037BD4680BD00BFC5
:103E60001C09002080B588B002AF3DE0274B1B68DD
:103E7000DB681B687B61254B1B68DB68DB683B618B
:103E80003B690433184601F087F83B695B6A38697F
:103E900098473B69DB69012B26D13B699A697B69AD
:103EA0001344FB60FA687B699A420ED93B69FA6851
:103EB0005A603B693A691A61144B1A683B690433CA
:103EC0001046194601F030F80EE0002300933869DF
:103ED00000217A690023FFF7F1FDB860BB68002B71
:103EE00002D102F001F8FEE7084B1B681B68002BAB
:103EF000BCD1064B1B687B60054B1A68034B1A60EC
:103F0000034B7A681A601837BD4680BD140900203B
:103F10001809002080B500AF01F0BEFF154B1B68EB
:103F2000002B24D1144800F0AFFF144800F0ACFF80
:103F3000134B114A1A60134B104A1A600A200C21C5
:103F4000002201F07BFA02460A4B1A60094B1B68FB
:103F5000002B02D101F0C8FFFEE7064B1B68002BC7
:103F600005D0044B1B681846074901F0EBFD01F032
:103F7000A3FF80BD1C090020EC08002000090020E0
:103F8000140900201809002060AA000880B58AB032
:103F900002AFF860B9603B601346FB80FB68002B02
:103FA00002D101F0A1FFFEE7BB6A042B02D901F0A8
:103FB0009BFFFEE7FB881846396B00F0E5FCB86113
:103FC000BB69002B72D0BB691A6BFB8803F180437D
:103FD000013B9B0013447B617B6923F007037B61FA
:103FE0007B6903F00703002B02D001F07DFFFEE7A1
:103FF000FB880093B869B968BA6A7B6B00F006FC6D
:104000007869F9683A6801F06FFE0246BB691A6088
:10401000FB6A002B02D0FB6ABA691A6001F03CFF10
:104020002E4B1B685A1C2D4B1A602D4B1B68002B06
:1040300009D12B4BBA691A60284B1B68012B0FD191
:1040400000F02CFC0CE0274B1B68002B08D1244B04
:104050001B68DA6ABB6A9A4202D8214BBA691A60B5
:10406000214B1B685A1C204B1A601F4B1A68BB69F6
:104070001A64BB69DA6A1D4B1B689A4203D9BB6993
:10408000DA6A1A4B1A60BB69DA6A13469B0013445A
:104090009B00174A1A44BB6904331046194600F0C6
:1040A0001FFF0123FB6101F007FF02E04FF0FF3328
:1040B000FB61FB69012B0BD10A4B1B68002B07D05E
:1040C000074B1B68DA6ABB6A9A4201D201F0D4FE40
:1040D000FB6918462037BD4680BD00BFE4090020BB
:1040E00024090020F0090020000A0020EC0900202B
:1040F0002809002080B584B000AF78600023FB6001
:104100007B68002B19D0114B1B68002B02D001F0EB
:10411000EBFEFEE700F058F80D4B1A687B6813447D
:10412000BB600C4B1B680433184600F035FFB868C1
:1041300000F0F4FB00F056F8F860FB68002B01D1AA
:1041400001F09AFE1037BD4680BD00BF040A002072
:10415000E80900202409002080B586B004AF0023C0
:10416000009300230193002302930023039312483A
:104170001249C4220023FFF709FF78607B68012BF6
:1041800002D1FFF76FFC78607B68012B0AD101F048
:10419000ABFE0B4B01221A600A4B00221A6001F0A1
:1041A00003FE05E07B68002B02D101F09DFEFEE7D7
:1041B0000837BD4680BD00BFE947000868AA00086F
:1041C000F0090020E809002080B400AF044B1B6810
:1041D0005A1C034B1A60BD465DF8047B704700BF54
:1041E000040A002080B582B000AF00237B60384B0A
:1041F0001B68002B02D101F077FEFEE701F04CFEB8
:10420000334B1B685A1E324B1A60314B1B68002B14
:1042100056D1304B1B68002B52D02FE02E4BDB6861
:10422000DB683B603B681833184600F0B5FE3B681E
:104230000433184600F0B0FE3B68DA6A274B1B686F
:104240009A4203D93B68DA6A244B1A603B68DA6AFF
:1042500013469B0013449B00214A1A443B680433D5
:104260001046194600F03CFE3B68DA6A1D4B1B689D
:10427000DB6A9A4202D31C4B01221A60164B1B6860
:10428000002BCBD1194B1B68002B11D00CE000F098
:1042900041F80346002B02D0134B01221A60134B46
:1042A0001B685A1E114B1A60104B1B68002BEED175
:1042B0000D4B1B68012B03D101237B6001F0DCFD5A
:1042C00001F0FAFD7B6818460837BD4680BD00BF87
:1042D000040A0020E4090020BC090020EC090020A9
:1042E0002809002024090020F8090020F4090020F2
:1042F00080B582B000AF01F0CFFD054B1B687B603D
:1043000001F0DAFD7B6818460837BD4680BD00BF66
:10431000E809002080B586B000AF00237B61524BD6
:104320001B68002B40F08D80504B1B685A1C4F4B74
:104330001A604E4B1B683B613B69002B18D14C4BFC
:104340001B681B68002B02D001F0CEFDFEE7484B36
:104350001B68FB60474B1A68454B1A60454BFA686F
:104360001A60454B1B685A1C434B1A6000F03EFB19
:10437000424B1B683A699A424ED33D4B1B681B68FF
:10438000002B01D1012300E00023002B04D03B4B84
:104390004FF0FF321A603FE0354B1B68DB68DB688B
:1043A000BB60BB685B687B603A697B689A4203D2FA
:1043B000324B7A681A602FE0BB680433184600F06D
:1043C000EBFDBB689B6A002B04D0BB681833184612
:1043D00000F0E2FDBB68DA6A294B1B689A4203D9F8
:1043E000BB68DA6A264B1A60BB68DA6A13469B0020
:1043F00013449B00234A1A44BB68043310461946F1
:1044000000F06EFDBB68DA6A1F4B1B68DB6A9A42DC
:1044100001D301237B61B0E71B4B1B68DA6A1949A2
:1044200013469B0013449B000B441B68012B01D9CE
:1044300001237B61154B1B68002B09D105F094F813
:1044400006E0124B1B685A1C104B1A6005F08CF8E2
:104450000F4B1B68002B01D001237B617B69184641
:104460001837BD4680BD00BF040A0020E8090020BF
:10447000B4090020B8090020FC0900200000002039
:10448000EC0900202809002024090020F40900205C
:10449000F809002080B582B000AF354B1B68002BB7
:1044A00003D0344B01221A605EE0324B00221A60C6
:1044B000314B1B681A68304B1B681B6B9A4208D83B
:1044C0002D4B1A682C4B1B6834331046194605F0E7
:1044D00045F8294B1B681B6B18462849142205F028
:1044E000E1FF0346002B09D0234B1A68224B1B68BF
:1044F00034331046194605F031F80CE00BE0204B40
:104500001B68002B02D101F0EFFCFEE71C4B1B687F
:104510005A1E1B4B1A601A4B1A681A4913469B0005
:1045200013449B000B441B68002BE8D0144B1A6803
:1045300013469B0013449B00124A13447B607B6824
:104540005B685A687B685A607B685A687B68083386
:104550009A4204D17B685B685A687B685A607B68C2
:104560005B68DA68044B1A600837BD4680BD00BF3F
:10457000040A0020F80900202409002070AA00087D
:10458000EC0900202809002080B584B000AF7860D5
:1045900039607B68002B02D101F0A6FCFEE7124BCC
:1045A0001B6818337868194600F0BEFC0E4B1B6878
:1045B0000433184600F0F0FC3B68B3F1FF3F07D12D
:1045C000094B1B6804330948194600F089FC07E0D1
:1045D000074B1A683B681344FB60F86800F09EF9CB
:1045E0001037BD4680BD00BF24090020D00900203F
:1045F000E809002080B584B000AF786039607B683E
:10460000002B02D101F070FCFEE70C4B1B68183345
:104610007868194600F064FC084B1B6804331846A0
:1046200000F0BAFC064B1A683B681344FB60F8685C
:1046300000F074F91037BD4680BD00BF240900208A
:10464000E809002080B584B000AF78607B68DB6843
:10465000DB68BB60BB68002B02D101F045FCFEE7C4
:10466000BB681833184600F097FC1E4B1B68002BE4
:104670001DD1BB680433184600F08EFCBB68DA6AB3
:10468000194B1B689A4203D9BB68DA6A164B1A6049
:10469000BB68DA6A13469B0013449B00134A1A4412
:1046A000BB6804331046194600F01AFC05E0BB68ED
:1046B00018330F48194600F013FCBB68DA6A0D4B3B
:1046C0001B68DB6A9A4205D90123FB600A4B012271
:1046D0001A6001E00023FB60FB6818461037BD46F6
:1046E00080BD00BF040A0020EC090020280900203A
:1046F000BC09002024090020F809002080B582B000
:1047000000AF78607B68002B02D101F0EDFBFEE783
:10471000054B1A687B681A60044B1A687B685A60FC
:104720000837BD4680BD00BFFC090020E809002015
:1047300080B584B000AF786039607B68002B02D10F
:1047400001F0D2FBFEE73B68002B02D101F0CCFB6D
:10475000FEE701F0A1FB1C4B1B68BB603B681B68BC
:10476000B3F1FF3F02D10023FB6026E07B681A68AB
:10477000164B1B689A4207D07B685A68BB689A42FE
:1047800002D80123FB6018E07B685B68BA68D21A24
:104790003B681B689A420ED23B681A687B6859686E
:1047A000BB68CB1A1A443B681A607868FFF7A6FF0B
:1047B0000023FB6001E00123FB6001F07DFBFB684F
:1047C00018461037BD4680BDE8090020FC090020CE
:1047D00080B400AF034B01221A60BD465DF8047B34
:1047E000704700BFF809002080B582B000AF786044
:1047F00000F08EF8044B1B68012B01D901F03CFB43
:1048000004F0A2FEF4E700BF2809002080B586B0BE
:1048100000AFF860B9607A603B6000237B6112E012
:10482000BA687B6913441A78F9687B690B443033A2
:104830001A71BA687B6913441B78002B00D105E01C
:104840007B6901337B617B69092BE9D9FB68002215
:1048500083F83D207B68042B01D904237B60FB682F
:104860007A68DA62FB687A689A64FB6804331846EF
:1048700000F02AFBFB681833184600F025FBFB68A4
:10488000FA681A617B68C3F10502FB689A61FB68EC
:10489000FA685A621837BD4680BD00BF80B582B045
:1048A00000AF00237B600CE07A6813469B00134442
:1048B0009B00104A1344184600F0E6FA7B68013367
:1048C0007B607B68042BEFD90B4800F0DDFA0B48C6
:1048D00000F0DAFA0A4800F0D7FA0A4800F0D4FAF1
:1048E000094B054A1A60094B044A1A600837BD464D
:1048F00080BD00BF280900208C090020A0090020ED
:10490000BC090020D0090020B4090020B80900200B
:1049100080B400AFBD465DF8047B704780B582B0BF
:1049200000AF7860134B1B687A685A60124B1B68A3
:104930007A689A4209D2114B1A680E4B1B680433ED
:104940001046194600F0F0FA10E00D4B1A68094BBA
:104950001B6804331046194600F0E6FA094B1B6841
:104960007A689A4202D2074B7A681A600837BD46C5
:1049700080BD00BF24090020E8090020B8090020FC
:10498000B40900200000002080B584B000AF0346C9
:104990003960FB804C2004F0B3F8F860FB68002B12
:1049A0001FD03B68002B06D1FB889B00184604F003
:1049B000A7F8034600E03B68FA681363FB681B6BCB
:1049C000002B05D1F86804F02DF90023FB6008E006
:1049D000FB681A6BFB889B001046A5211A4605F060
:1049E0002FFEFB6818461037BD4680BD80B483B0EB
:1049F00000AF0E4B1B681B68002B01D1012300E0A8
:104A00000023002B04D00A4B4FF0FF321A6008E05D
:104A1000064B1B68DB68DB687B607B685A68044B6D
:104A20001A600C37BD465DF8047B7047B40900205E
:104A30000000002080B483B000AF054B1B687B6092
:104A40007B6818460C37BD465DF8047B704700BF95
:104A50002409002080B483B000AF0B4B1B68002BEF
:104A600002D101237B6008E0084B1B68002B02D1B8
:104A700002237B6001E000237B607B6818460C37D3
:104A8000BD465DF8047B7047F0090020040A002051
:104A900080B584B000AF78607B68FB607B68002BDA
:104AA0004AD0FB68DA6A264B1B68DB6A9A4243D21B
:104AB000FB689B69002B06DB214B1B68DB6AC3F19B
:104AC0000502FB689A61FB685969FB68DA6A13465C
:104AD0009B0013449B001B4A1344994201D10123BC
:104AE00000E00023002B22D0FB680433184600F0BE
:104AF00053FA134B1B68DA6AFB68DA62FB68DA6AFE
:104B0000114B1B689A4203D9FB68DA6A0E4B1A6094
:104B1000FB68DA6A13469B0013449B00094A1A4457
:104B2000FB6804331046194600F0DAF904E0044B40
:104B30001B68DA6AFB68DA621037BD4680BD00BFC9
:104B40002409002028090020EC09002080B584B049
:104B500000AF78607B68FB607B68002B30D0FB681F
:104B6000DA6AFB689B6C9A422AD0FB6804331846C9
:104B700000F012FAFB689A6CFB68DA62FB689B69CA
:104B8000002B05DBFB68DB6AC3F10502FB689A6159
:104B9000FB68DA6A0C4B1B689A4203D9FB68DA6A35
:104BA000094B1A60FB68DA6A13469B0013449B00AA
:104BB000064A1A44FB6804331046194600F090F97F
:104BC0001037BD4680BD00BFEC0900202809002039
:104BD00080B400AFFEE700BF80B400AFFEE700BFC7
:104BE00080B400AFFEE700BF80B400AFFEE700BFB7
:104BF00080B400AFFEE700BF80B400AFFEE700BFA7
:104C000080B400AFFEE700BF80B400AFFEE700BF96
:104C100080B487B000AF7860396000237B610023E7
:104C20003B610023FB6000237B6176E07B6901220E
:104C300002FA03F33B613B681A683B691340FB606F
:104C4000FA683B699A4265D17B681A687B695B00A8
:104C5000032101FA03F3DB431A407B681A607B6887
:104C60001A683B681B7919467B695B0001FA03F3FC
:104C70001A437B681A603B681B79012B03D03B68A1
:104C80001B79022B2ED17B689A687B695B0003211C
:104C900001FA03F3DB431A407B689A607B689A68E9
:104CA0003B685B7919467B695B0001FA03F31A43A1
:104CB0007B689A607B685A687B699BB2012101FA24
:104CC00003F3DB431A407B685A607B685A683B6891
:104CD0009B7919467B699BB201FA03F39BB21A4395
:104CE0007B685A607B68DA687B699BB25B00032152
:104CF00001FA03F3DB431A407B68DA607B68DA6809
:104D00003B68DB7919467B695B0001FA03F31A43C0
:104D10007B68DA607B6901337B617B690F2B85D906
:104D20001C37BD465DF8047B704700BF80B483B07C
:104D300000AF78607B684FF6FF721A607B680022D4
:104D40001A717B6800225A717B6800229A717B6815
:104D50000022DA710C37BD465DF8047B704700BF56
:104D600080B485B000AF78600B467B800023FB7376
:104D70007B681A697B881340002B02D00123FB73E8
:104D800001E00023FB73FB7B18461437BD465DF83A
:104D9000047B704780B483B000AF78600B467B80A3
:104DA0007B687A881A830C37BD465DF8047B7047B0
:104DB00080B483B000AF78600B467B807B687A88D4
:104DC0005A830C37BD465DF8047B704780B483B0CE
:104DD00000AF786013460A467A807B707B78002BA0
:104DE00003D07B687A881A8302E07B687A885A83CA
:104DF0000C37BD465DF8047B704700BF80B485B0BA
:104E000000AF786013460A467A807B700023FB600F
:104E10000023BB607A787B8803F007039B0002FACB
:104E200003F3FB607B88DB089BB21A467B88DB08B8
:104E30009BB219467B68083153F821107B8803F038
:104E400007039B000F2000FA03F3DB4319407B6844
:104E5000083243F822107B88DB089BB21A467B6835
:104E6000083253F82220FB681343BB607B88DB08C1
:104E70009BB21A467B680832B96843F8221014378F
:104E8000BD465DF8047B704780B483B000AF7860A6
:104E90007B6803F108027B685A607B684FF0FF3241
:104EA0009A607B6803F108027B68DA607B6803F133
:104EB00008027B681A617B6800221A600C37BD46C5
:104EC0005DF8047B704700BF80B483B000AF7860AA
:104ED0007B6800221A610C37BD465DF8047B704781
:104EE00080B485B000AF786039607B685B68FB6038
:104EF0003B68FA685A60FB689A683B689A60FB688E
:104F00009B683A685A60FB683A689A603B687A68BE
:104F10001A617B681B685A1C7B681A601437BD468F
:104F20005DF8047B704700BF80B485B000AF786047
:104F300039603B681B68BB60BB68B3F1FF3F03D1BE
:104F40007B681B69FB600CE07B680833FB6002E058
:104F5000FB685B68FB60FB685B681A68BB689A4229
:104F6000F6D9FB685A683B685A603B685B683A68E8
:104F70009A603B68FA689A60FB683A685A603B68D6
:104F80007A681A617B681B685A1C7B681A60143740
:104F9000BD465DF8047B704780B485B000AF786093
:104FA0007B681B69FB607B685B687A6892689A60C3
:104FB0007B689B687A6852685A60FB685A687B68AD
:104FC0009A4203D17B689A68FB685A607B6800222A
:104FD0001A61FB681B685A1EFB681A60FB681B6835
:104FE00018461437BD465DF8047B704780B500AFA6
:104FF000154B154AD2F8882042F47002C3F8882075
:10500000124B124A126842F001021A600F4B002242
:105010009A600E4A0D4B1B6823F0847323F480338F
:1050200013600A4B0A4A5A60084B084A126822F475
:1050300080221A60054B0022DA6000F00BF8024B68
:105040004FF000629A6080BD00ED00E00038024041
:105050001030002480B483B000AF00237B600023B5
:105060003B60354B344A126842F480321A60324B4E
:105070001B6803F400333B607B6801337B603B6853
:10508000002B03D17B68B3F5A06FF0D12A4B1B68CE
:1050900003F40033002B02D001233B6001E0002326
:1050A0003B603B68012B42D1234B234A126C42F0F8
:1050B00080521A64214B214A126842F480421A60DD
:1050C0001D4B1D4A92689A601B4B1B4A926842F422
:1050D00000429A60184B184A926842F4A0529A60B3
:1050E000154B174A5A60144B134A126842F08072EB
:1050F0001A6000BF104B1B6803F00073002BF9D03F
:10510000104B40F205621A600B4B0B4A926822F07A
:1051100003029A60084B084A926842F002029A60C1
:1051200000BF054B9B6803F00C03082BF9D10C372B
:10513000BD465DF8047B70470038024000700040B7
:1051400019544007003C024080B485B000AF78603D
:105150000B4B1B68002B02D1094B0A4A1A60084B03
:105160001B68FB60064B1A687B681A44044B1A6084
:10517000FB6818461437BD465DF8047B704700BFD6
:10518000080A00205437012080B58CB000AF786049
:105190007B6840F252321A807B684FF4FA625A8080
:1051A00010200121FEF704FC01200121FEF73CFC48
:1051B00007F128031846FFF7B9FD022387F82C30C2
:1051C000002387F82E304FF4D443BB62012387F8C5
:1051D0002D3007F1280338481946FFF719FD3648E6
:1051E00009210122FFF70AFE33480B210122FFF7B4
:1051F00005FE31480D210122FFF700FE2E480E2149
:105200000122FFF7FBFD07F11C03184603F080FEA7
:1052100044F61F633B623623BB830023BB84002319
:10522000FB8307F11C032548194603F007FE07F12D
:105230000803184604F094F870233B8101237B8116
:1052400000233B610223BB824FF480733B8307F151
:1052500008031A48194603F095FE1848082104F07F
:10526000D9F807F108031548194603F005FF13485C
:10527000082104F0EBF807F108031048194603F081
:1052800083FF0E48082104F0FFF807F108030B48DC
:10529000194603F0FFFF0948082104F011F90748F7
:1052A000012103F04FFE0548012104F027F97B6836
:1052B00018463037BD4680BD001002400000014056
:1052C00080B584B000AFF86079813A81FB807B893A
:1052D000FA6852881146FA6812888A1A02FB03F3A8
:1052E000284A82FB03129211DB17D21AFB681B8833
:1052F00013442548194604F055F83B89FA6852884A
:105300001146FA6812888A1A02FB03F31D4A82FBCF
:1053100003129211DB17D21AFB681B8813441A4838
:10532000194604F04DF8FB88FA6852881146FA686D
:1053300012888A1A02FB03F3124A82FB03129211AB
:10534000DB17D21AFB681B8813440F48194604F078
:1053500045F83B8BFA6852881146FA6812888A1A17
:1053600002FB03F3074A82FB03129211DB17D21AE6
:10537000FB681B8813440448194604F03DF81037B5
:10538000BD4680BDD34D62100000014080B584B0A1
:1053900000AF786039607B68FB60FB68002B02D14E
:1053A00000F0A2FDFEE700F077FDFB681A68FB68DD
:1053B000DB6BF968096C01FB03F31A44FB685A6064
:1053C000FB6800229A63FB681A68FB689A60FB68B6
:1053D0001A68FB68DB6B013BF968096C01FB03F39E
:1053E0001A44FB68DA60FB684FF0FF325A64FB68CE
:1053F0004FF0FF329A643B68002B0ED1FB681B69AB
:10540000002B14D0FB6810331846FFF71BF9034636
:10541000012B0CD100F030FD09E0FB681033184679
:10542000FFF732FDFB6824331846FFF72DFD00F02F
:1054300043FD012318461037BD4680BD80B588B0B6
:1054400000AFF860B9601346FB710023FB61FB6895
:10545000002B2DD0582003F053FBB861BB69002B03
:1054600026D0FB68BA6802FB03F301337B617869DD
:1054700003F046FB0246BB691A60BB691B68002B40
:1054800013D0BB69FA68DA63BB69BA681A64B86991
:105490000121FFF77BFFBB69FA7983F85020BB69D4
:1054A00000225A65BB69FB6102E0B86903F0BAFBF0
:1054B000FB69002B02D100F017FDFEE7FB691846DF
:1054C0002037BD4680BD00BF80B588B000AFF86012
:1054D000B9607A603B600023FB61FB68BB61BB691C
:1054E000002B02D100F000FDFEE7BB68002B03D1CA
:1054F000BB691B6C002B01D1012300E00023002BB2
:1055000002D100F0F1FCFEE73B68022B03D1BB693E
:10551000DB6B012B01D1012300E00023002B02D122
:1055200000F0E2FCFEE7FFF795FA0346002B02D1FC
:105530007B68002B01D1012300E00023002B02D166
:1055400000F0D2FCFEE700F0A7FCBB699A6BBB69D8
:10555000DB6B9A4202D33B68022B24D1B869B9684D
:105560003A6800F0D9F9BB695B6D002B09D0B869C6
:10557000396800F081FB0346012B10D100F07CFC60
:105580000DE0BB695B6A002B09D0BB692433184668
:10559000FFF758F80346012B01D100F06DFC00F035
:1055A0008BFC012359E07B68002B03D100F084FCC5
:1055B000002352E0FB69002B06D107F110031846C7
:1055C000FFF79CF80123FB6100F076FCFEF7FCFD81
:1055D00000F062FCBB695B6CB3F1FF3F02D1BB69B9
:1055E00000225A64BB699B6CB3F1FF3F02D1BB69D7
:1055F00000229A6400F060FC07F110023B1D104687
:105600001946FFF795F80346002B1ED1B86900F044
:1056100081FA0346002B12D0BB6903F110027B68AC
:1056200010461946FEF7B0FFB86900F003FAFEF71E
:10563000D9FD0346002B0FD100F01EFC0CE0B86929
:1056400000F0F8F9FEF7CEFD7DE7B86900F0F2F959
:10565000FEF7C8FD002300E075E718462037BD4679
:1056600080BD00BF80B588B000AFF860B9607A60D7
:105670003B60FB68BB61BB69002B02D100F034FCCE
:10568000FEE7BB68002B03D1BB691B6C002B01D16B
:10569000012300E00023002B02D100F025FCFEE7EF
:1056A0003B68022B03D1BB69DB6B012B01D10123CA
:1056B00000E00023002B02D100F016FCFEE700F012
:1056C00085FC00F011FC7861BB699A6BBB69DB6BF0
:1056D0009A4202D33B68022B36D1B869B9683A685E
:1056E00000F01AF9BB699B6CB3F1FF3F24D1BB6991
:1056F0005B6D002B0DD0B869396800F0BDFA034628
:10570000012B1ED17B68002B1BD07B6801221A6005
:1057100017E0BB695B6A002B13D0BB6924331846C2
:10572000FEF790FF0346002B0BD07B68002B08D0C0
:105730007B6801221A6004E0BB699B6C5A1CBB6940
:105740009A640123FB6101E00023FB61786900F0AA
:10575000D5FBFB6918462037BD4680BD80B58AB0B1
:1057600000AFF860B9607A603B6000237B62FB6841
:105770003B623B6A002B02D100F0B6FBFEE7BB6840
:10578000002B03D13B6A1B6C002B01D1012300E0ED
:105790000023002B02D100F0A7FBFEE7FFF75AF928
:1057A0000346002B02D17B68002B01D1012300E0CE
:1057B0000023002B02D100F097FBFEE700F06CFB0A
:1057C0003B6A9B6B002B3BD03B6ADB68FB61386A12
:1057D000B96800F009F93B68002B1CD13B6A9B6B50
:1057E0005A1E3B6A9A633B6A1B68002B04D1FFF781
:1057F00021F902463B6A5A603B6A1B69002B1BD0A9
:105800003B6A10331846FEF71DFF0346012B13D1E8
:1058100000F032FB10E03B6AFA69DA603B6A5B6ACF
:10582000002B09D03B6A24331846FEF70BFF0346D2
:10583000002B01D000F020FB00F03EFB012366E0CE
:105840007B68002B03D100F037FB00235FE07B6A0D
:10585000002B06D107F114031846FEF74FFF012372
:105860007B6200F029FBFEF7AFFC00F015FB3B6A02
:105870005B6CB3F1FF3F02D13B6A00225A643B6A82
:105880009B6CB3F1FF3F02D13B6A00229A6400F0A7
:1058900013FB07F114023B1D10461946FEF748FFA3
:1058A0000346002B2BD1386A00F01EF90346002B6B
:1058B0001FD03B6A1B68002B08D100F0EDFA3B6A51
:1058C0005B681846FFF7E4F800F0F6FA3B6A03F16C
:1058D00024027B6810461946FEF756FE386A00F02F
:1058E000A9F8FEF77FFC0346002B0FD100F0C4FAA5
:1058F0000CE0386A00F09EF8FEF774FC5EE7386A48
:1059000000F098F8FEF76EFC002300E056E718461A
:105910002837BD4680BD00BF80B584B000AFF860B9
:10592000B9607A60FB681B6C002B0CD1FB681B68AC
:10593000002B51D1FB685B681846FFF707F9FB683D
:1059400000225A6048E07B68002B1AD1FB689A68F5
:10595000FB681B6C1046B9681A4604F0D7FDFB685B
:105960009A68FB681B6C1A44FB689A60FB689A682B
:10597000FB685B689A422FD3FB681A68FB689A60E1
:105980002AE0FB68DA68FB681B6C1046B9681A46A7
:1059900004F0BCFDFB68DA68FB681B6C5B421A44D0
:1059A000FB68DA60FB68DA68FB681B689A4207D21A
:1059B000FB685A68FB681B6C5B421A44FB68DA6040
:1059C0007B68022B08D1FB689B6B002B04D0FB6823
:1059D0009B6B5A1EFB689A63FB689B6B5A1CFB68A7
:1059E0009A631037BD4680BD80B582B000AF786045
:1059F00039607B681B68002B19D07B68DA687B688C
:105A00001B6C1A447B68DA607B68DA687B685B68C9
:105A10009A4203D37B681A687B68DA607B68DA682D
:105A20007B681B6C386811461A4604F06FFD083716
:105A3000BD4680BD80B582B000AF786000F02CFA22
:105A400022E07B685B6D002B09D07868002100F0B4
:105A500013F90346012B12D1FEF7BAFE0FE07B6863
:105A60005B6A002B0AD07B6824331846FEF7EAFDF8
:105A70000346002B03D0FEF7ABFE00E008E07B6896
:105A80009B6C5A1E7B689A647B689B6C002BD8DCED
:105A90007B684FF0FF329A6400F00EFA00F0FCF9D8
:105AA00014E07B681B69002B0FD07B68103318460D
:105AB000FEF7C8FD0346002B01D0FEF789FE7B6888
:105AC0005B6C5A1E7B685A6400E003E07B685B6C89
:105AD000002BE6DC7B684FF0FF325A6400F0ECF9F3
